:0200000078295D
:0E0006008312031331088A00300882000800BC
:1000140003208A110A128000840AB00A0319B10A63
:08002400F003031D0A28080087
:10002C0083120313051845280330880080302506F9
:10003C00F00080307002031D252800302402031CC0
:10004C003E280A308700240886000B30FB0026303F
:10005C00FC005D30FD00FD0B3128FC0B3128FB0B47
:10006C003128000000000130A402031CA5031C2849
:10007C000C3087000330A6000030A7007128051C47
:10008C0071280C30880080302706F0008030700218
:10009C00031D522800302602031C6B2811308700E8
:1000AC00260886000B30FB002630FC005D30FD007E
:1000BC00FD0B5E28FC0B5E28FB0B5E28000000008D
:1000CC000130A602031CA703492821308700033006
:0800DC00A4000030A50008009B
:1000E400FF308312031388000330A0000030A10006
:1000F40080302106F00080307002031D8328003018
:100104002002031C77290930A2000030A3008030AC
:100114002306F00080307002031D92280030220272
:10012400031C72298518A02886010330A40000301E
:10013400A5000330A6000030A70072292008F000B3
:100144002108F100F00DF10D70107008283E8400B4
:1001540022080007F100840A00080318013E23075F
:10016400F20000307206031DB928393071060319F4
:10017400D7282008F0002108F100F00DF10D7010CF
:100184007008283E840022080007F100840A000851
:100194000318013E2307F20000307206031DD42821
:1001A400383071060319D728D8286D292008F000A3
:1001B4002108F100F00DF10D70107008283E840044
:1001C40022080007F100840A00080318013E2307EF
:1001D400F2008030F000803072067002031DF428B3
:1001E4007108353C0318F92811308700522920087A
:1001F400F0002108F100F00DF10D70107008283E98
:10020400840022080007F100840A00080318013E54
:100214002307F20000307206031D122934307106E0
:10022400031D17292130870052292008F0002108D6
:10023400F100F00DF10D70107008283E84002208C2
:100244000007F100840A00080318013E2307F200A6
:1002540000307206031D302923307106031D352931
:100264000A30870052292008F0002108F100F00D1F
:10027400F10D70107008283E840022080007F10078
:10028400840A00080318013E2307F20000307206B6
:10029400031D4E2920307106031D52290C3087009E
:1002A4002008F0002108F100F00DF10D7010700825
:1002B400283E84002208000786000B30FB0026300D
:1002C400FC005D30FD00FD0B6529FC0B6529FB0B73
:1002D4006529000000000130A202031CA303892841
:0C02E4000130A002031CA1037A280800CE
:1002F000033083120313A000A1010930A200A3015F
:100300000330A400A5010330A600A701A801A9019C
:100310001030AA00AB012030AC00AD013030AE008F
:10032000AF01073083169F00860187018801FF30E7
:1003300085008312851C9E2972209F2916209929E9
:02034000A029F2
:02400E004A2F37
:00000001FF
